{
  "_format": "hh-sol-artifact-1",
  "contractName": "FundManager",
  "sourceName": "contracts/FundManager.sol",
  "abi": [
    {
      "inputs": [
        {
          "internalType": "address[]",
          "name": "_beneficiaryAddresses",
          "type": "address[]"
        },
        {
          "internalType": "uint256[]",
          "name": "_sharePercentages",
          "type": "uint256[]"
        },
        {
          "internalType": "address",
          "name": "_tokenAddress",
          "type": "address"
        },
        {
          "internalType": "uint256",
          "name": "_releaseAmount",
          "type": "uint256"
        },
        {
          "internalType": "uint256",
          "name": "_releaseInterval",
          "type": "uint256"
        },
        {
          "internalType": "uint256",
          "name": "_fundMaturityDate",
          "type": "uint256"
        },
        {
          "internalType": "string",
          "name": "_causeName",
          "type": "string"
        },
        {
          "internalType": "string",
          "name": "_causeDescription",
          "type": "string"
        },
        {
          "internalType": "address[]",
          "name": "_governors",
          "type": "address[]"
        },
        {
          "internalType": "uint256",
          "name": "_requiredNumberofApprovalsForWithdrawal",
          "type": "uint256"
        },
        {
          "internalType": "uint256",
          "name": "_timesEmergencyWithdrawalAllowed",
          "type": "uint256"
        },
        {
          "internalType": "uint256",
          "name": "_limitPerEmergencyWithdrawal",
          "type": "uint256"
        },
        {
          "internalType": "uint256",
          "name": "_totalLimitForEmergencyWithdrawal",
          "type": "uint256"
        }
      ],
      "stateMutability": "nonpayable",
      "type": "constructor"
    },
    {
      "inputs": [],
      "name": "AlreadyApproved",
      "type": "error"
    },
    {
      "inputs": [],
      "name": "EnforcedPause",
      "type": "error"
    },
    {
      "inputs": [],
      "name": "ExpectedPause",
      "type": "error"
    },
    {
      "inputs": [],
      "name": "InsufficientTokens",
      "type": "error"
    },
    {
      "inputs": [],
      "name": "InvalidBeneficiaryShares",
      "type": "error"
    },
    {
      "inputs": [],
      "name": "InvalidGovernors",
      "type": "error"
    },
    {
      "inputs": [],
      "name": "InvalidMaturityDate",
      "type": "error"
    },
    {
      "inputs": [],
      "name": "InvalidTotalSharePercentage",
      "type": "error"
    },
    {
      "inputs": [],
      "name": "NotGovernor",
      "type": "error"
    },
    {
      "inputs": [],
      "name": "ReentrancyGuardReentrantCall",
      "type": "error"
    },
    {
      "inputs": [
        {
          "internalType": "address",
          "name": "token",
          "type": "address"
        }
      ],
      "name": "SafeERC20FailedOperation",
      "type": "error"
    },
    {
      "inputs": [],
      "name": "TotalWithdrawalLimitBreached",
      "type": "error"
    },
    {
      "inputs": [],
      "name": "WithdrawalAmountBreachesLimit",
      "type": "error"
    },
    {
      "inputs": [],
      "name": "ZeroAmount",
      "type": "error"
    },
    {
      "anonymous": false,
      "inputs": [
        {
          "indexed": true,
          "internalType": "bytes32",
          "name": "withdrawalId",
          "type": "bytes32"
        },
        {
          "indexed": true,
          "internalType": "address",
          "name": "governor",
          "type": "address"
        },
        {
          "indexed": false,
          "internalType": "uint256",
          "name": "currentApprovals",
          "type": "uint256"
        }
      ],
      "name": "EmergencyWithdrawalApproved",
      "type": "event"
    },
    {
      "anonymous": false,
      "inputs": [
        {
          "indexed": false,
          "internalType": "uint256",
          "name": "totalAmount",
          "type": "uint256"
        },
        {
          "indexed": false,
          "internalType": "uint256",
          "name": "timestamp",
          "type": "uint256"
        }
      ],
      "name": "EmergencyWithdrawalExecuted",
      "type": "event"
    },
    {
      "anonymous": false,
      "inputs": [
        {
          "indexed": true,
          "internalType": "bytes32",
          "name": "withdrawalId",
          "type": "bytes32"
        },
        {
          "indexed": true,
          "internalType": "address",
          "name": "initiator",
          "type": "address"
        }
      ],
      "name": "EmergencyWithdrawalInitiated",
      "type": "event"
    },
    {
      "anonymous": false,
      "inputs": [
        {
          "indexed": true,
          "internalType": "address",
          "name": "sender",
          "type": "address"
        },
        {
          "indexed": true,
          "internalType": "string",
          "name": "note",
          "type": "string"
        },
        {
          "indexed": true,
          "internalType": "address",
          "name": "token",
          "type": "address"
        },
        {
          "indexed": false,
          "internalType": "uint256",
          "name": "amount",
          "type": "uint256"
        },
        {
          "indexed": false,
          "internalType": "uint256",
          "name": "timestamp",
          "type": "uint256"
        }
      ],
      "name": "FundReceived",
      "type": "event"
    },
    {
      "anonymous": false,
      "inputs": [
        {
          "indexed": false,
          "internalType": "address",
          "name": "account",
          "type": "address"
        }
      ],
      "name": "Paused",
      "type": "event"
    },
    {
      "anonymous": false,
      "inputs": [
        {
          "indexed": false,
          "internalType": "address",
          "name": "account",
          "type": "address"
        }
      ],
      "name": "Unpaused",
      "type": "event"
    },
    {
      "inputs": [
        {
          "internalType": "bytes32",
          "name": "withdrawalId",
          "type": "bytes32"
        }
      ],
      "name": "approveEmergencyWithdrawal",
      "outputs": [],
      "stateMutability": "nonpayable",
      "type": "function"
    },
    {
      "inputs": [
        {
          "internalType": "uint256",
          "name": "",
          "type": "uint256"
        }
      ],
      "name": "beneficiaries",
      "outputs": [
        {
          "internalType": "address payable",
          "name": "wallet",
          "type": "address"
        },
        {
          "internalType": "uint256",
          "name": "sharePercentage",
          "type": "uint256"
        }
      ],
      "stateMutability": "view",
      "type": "function"
    },
    {
      "inputs": [],
      "name": "causeDescription",
      "outputs": [
        {
          "internalType": "string",
          "name": "",
          "type": "string"
        }
      ],
      "stateMutability": "view",
      "type": "function"
    },
    {
      "inputs": [],
      "name": "causeName",
      "outputs": [
        {
          "internalType": "string",
          "name": "",
          "type": "string"
        }
      ],
      "stateMutability": "view",
      "type": "function"
    },
    {
      "inputs": [
        {
          "internalType": "bytes32",
          "name": "",
          "type": "bytes32"
        }
      ],
      "name": "emergencyWithdrawalApprovals",
      "outputs": [
        {
          "internalType": "uint256",
          "name": "",
          "type": "uint256"
        }
      ],
      "stateMutability": "view",
      "type": "function"
    },
    {
      "inputs": [],
      "name": "emergencyWithdrawalConfig",
      "outputs": [
        {
          "internalType": "uint256",
          "name": "requiredNumberofApprovals",
          "type": "uint256"
        },
        {
          "internalType": "uint256",
          "name": "timesAllowed",
          "type": "uint256"
        },
        {
          "internalType": "uint256",
          "name": "limitPerWithdrawal",
          "type": "uint256"
        },
        {
          "internalType": "uint256",
          "name": "totalLimit",
          "type": "uint256"
        }
      ],
      "stateMutability": "view",
      "type": "function"
    },
    {
      "inputs": [
        {
          "internalType": "bytes32",
          "name": "",
          "type": "bytes32"
        }
      ],
      "name": "emergencyWithdrawals",
      "outputs": [
        {
          "internalType": "string",
          "name": "status",
          "type": "string"
        },
        {
          "internalType": "uint256",
          "name": "amount",
          "type": "uint256"
        }
      ],
      "stateMutability": "view",
      "type": "function"
    },
    {
      "inputs": [
        {
          "internalType": "bytes32",
          "name": "withdrawalId",
          "type": "bytes32"
        }
      ],
      "name": "executeEmergencyWithdrawal",
      "outputs": [],
      "stateMutability": "nonpayable",
      "type": "function"
    },
    {
      "inputs": [],
      "name": "fundMaturityDate",
      "outputs": [
        {
          "internalType": "uint256",
          "name": "",
          "type": "uint256"
        }
      ],
      "stateMutability": "view",
      "type": "function"
    },
    {
      "inputs": [],
      "name": "getAllBeneficiaries",
      "outputs": [
        {
          "components": [
            {
              "internalType": "address payable",
              "name": "wallet",
              "type": "address"
            },
            {
              "internalType": "uint256",
              "name": "sharePercentage",
              "type": "uint256"
            }
          ],
          "internalType": "struct FundManager.Beneficiary[]",
          "name": "",
          "type": "tuple[]"
        }
      ],
      "stateMutability": "view",
      "type": "function"
    },
    {
      "inputs": [],
      "name": "getBeneficiaryCount",
      "outputs": [
        {
          "internalType": "uint256",
          "name": "",
          "type": "uint256"
        }
      ],
      "stateMutability": "view",
      "type": "function"
    },
    {
      "inputs": [],
      "name": "getWalletBalance",
      "outputs": [
        {
          "internalType": "uint256",
          "name": "",
          "type": "uint256"
        }
      ],
      "stateMutability": "view",
      "type": "function"
    },
    {
      "inputs": [
        {
          "internalType": "uint256",
          "name": "",
          "type": "uint256"
        }
      ],
      "name": "governors",
      "outputs": [
        {
          "internalType": "address",
          "name": "",
          "type": "address"
        }
      ],
      "stateMutability": "view",
      "type": "function"
    },
    {
      "inputs": [
        {
          "internalType": "bytes32",
          "name": "",
          "type": "bytes32"
        },
        {
          "internalType": "address",
          "name": "",
          "type": "address"
        }
      ],
      "name": "hasApprovedEmergencyWithdrawal",
      "outputs": [
        {
          "internalType": "bool",
          "name": "",
          "type": "bool"
        }
      ],
      "stateMutability": "view",
      "type": "function"
    },
    {
      "inputs": [
        {
          "internalType": "uint256",
          "name": "_amount",
          "type": "uint256"
        }
      ],
      "name": "initiateEmergencyWithdrawal",
      "outputs": [
        {
          "internalType": "bytes32",
          "name": "withdrawalId",
          "type": "bytes32"
        }
      ],
      "stateMutability": "nonpayable",
      "type": "function"
    },
    {
      "inputs": [
        {
          "internalType": "address",
          "name": "",
          "type": "address"
        }
      ],
      "name": "isGovernor",
      "outputs": [
        {
          "internalType": "bool",
          "name": "",
          "type": "bool"
        }
      ],
      "stateMutability": "view",
      "type": "function"
    },
    {
      "inputs": [],
      "name": "paused",
      "outputs": [
        {
          "internalType": "bool",
          "name": "",
          "type": "bool"
        }
      ],
      "stateMutability": "view",
      "type": "function"
    },
    {
      "inputs": [
        {
          "internalType": "uint256",
          "name": "_amount",
          "type": "uint256"
        },
        {
          "internalType": "string",
          "name": "note",
          "type": "string"
        }
      ],
      "name": "receiveFund",
      "outputs": [],
      "stateMutability": "nonpayable",
      "type": "function"
    },
    {
      "inputs": [],
      "name": "releaseAmount",
      "outputs": [
        {
          "internalType": "uint256",
          "name": "",
          "type": "uint256"
        }
      ],
      "stateMutability": "view",
      "type": "function"
    },
    {
      "inputs": [],
      "name": "releaseInterval",
      "outputs": [
        {
          "internalType": "uint256",
          "name": "",
          "type": "uint256"
        }
      ],
      "stateMutability": "view",
      "type": "function"
    },
    {
      "inputs": [],
      "name": "token",
      "outputs": [
        {
          "internalType": "contract IERC20",
          "name": "",
          "type": "address"
        }
      ],
      "stateMutability": "view",
      "type": "function"
    },
    {
      "inputs": [],
      "name": "totalWithdrawnAmount",
      "outputs": [
        {
          "internalType": "uint256",
          "name": "",
          "type": "uint256"
        }
      ],
      "stateMutability": "view",
      "type": "function"
    }
  ],
  "bytecode": "0x6101006040523461070c576119448038038061001a81610721565b92833981016101a08282031261070c5781516001600160401b03811161070c5781610046918401610771565b60208301516001600160401b03811161070c5783019180601f8401121561070c5782519261007b61007685610746565b610721565b9360208086838152019160051b8301019183831161070c57602001905b828210610711575050506100ae6040850161075d565b93606081015160808201519160a08101519260c082015160018060401b03811161070c57856100de9184016107cc565b60e08301519095906001600160401b03811161070c57816101009185016107cc565b61010084015190916001600160401b03821161070c57610121918501610771565b9561012084015195610140850151936101806101608701519601519660018055824210156106fb578a5180159081156106ef575b506106de5760008060e0525b8b5160e051101561026e578c6101918d61018560018060a01b039160e05190610837565b51169160e05190610837565b5160408051929083016001600160401b0381118482101761025857604052825260208201526002546801000000000000000081101561025857600181018060025581101561024257602060019160026000528160002090831b0192828060a01b03815116838060a01b031985541617845501519101556102148d60e05190610837565b51810180911161022c5760e080516001019052610161565b634e487b7160e01b600052601160045260246000fd5b634e487b7160e01b600052603260045260246000fd5b634e487b7160e01b600052604160045260246000fd5b6127108e91036106cd576001600160a01b031660805260035560a05260c0528051906001600160401b03821161025857600c5490600182811c921680156106c3575b60208310146105c05781601f849311610653575b50602090601f83116001146105eb576000926105e0575b50508160011b916000199060031b1c191617600c555b8051906001600160401b03821161025857600d5490600182811c921680156105d6575b60208310146105c05781601f849311610550575b50602090601f83116001146104e8576000926104dd575b50508160011b916000199060031b1c191617600d555b845180159081156104d4575b81156104ca575b506104415760005b855181101561047d576001600160a01b0361038b8288610837565b5116158015610452575b610441576001600160a01b036103ab8288610837565b511690600e549168010000000000000000831015610258576001830180600e5583101561024257600e6000527fbb7b4a454dc3493923482f07822329ed19e8244eff582cc204f8554c3620c3fd90920180546001600160a01b0319169092179091556001906001600160a01b036104228289610837565b5116600052600f60205260406000208260ff1982541617905501610370565b632f77a6e160e01b60005260046000fd5b506001600160a01b036104658288610837565b5116600052600f60205260ff60406000205416610395565b50836004556005556006556007556040516110f8908161084c8239608051818181610127015281816108e0015281816109e00152610c88015260a05181610bbb015260c051816104cd0152f35b9050841186610368565b85159150610361565b01519050878061033f565b600d60009081528281209350601f198516905b818110610538575090846001959493921061051f575b505050811b01600d55610355565b015160001960f88460031b161c19169055878080610511565b929360206001819287860151815501950193016104fb565b600d6000529091507fd7b6990105719101dabeb77144f2a3385c8033acd3af97e9423a695e81ad1eb5601f840160051c810191602085106105b6575b90601f859493920160051c01905b8181106105a75750610328565b6000815584935060010161059a565b909150819061058c565b634e487b7160e01b600052602260045260246000fd5b91607f1691610314565b0151905088806102db565b600c60009081528281209350601f198516905b81811061063b5750908460019594939210610622575b505050811b01600c556102f1565b015160001960f88460031b161c19169055888080610614565b929360206001819287860151815501950193016105fe565b600c6000529091507fdf6966c971051c3d54ec59162606531493a51404a002842f56009d7e5cf4a8c7601f840160051c810191602085106106b9575b90601f859493920160051c01905b8181106106aa57506102c4565b6000815584935060010161069d565b909150819061068f565b91607f16916102b0565b63357713ed60e21b60005260046000fd5b63017d64fb60e51b60005260046000fd5b90508c51141538610155565b633085aae960e01b60005260046000fd5b600080fd5b8151815260209182019101610098565b6040519190601f01601f191682016001600160401b0381118382101761025857604052565b6001600160401b0381116102585760051b60200190565b51906001600160a01b038216820361070c57565b9080601f8301121561070c57815161078b61007682610746565b9260208085848152019260051b82010192831161070c57602001905b8282106107b45750505090565b602080916107c18461075d565b8152019101906107a7565b81601f8201121561070c578051906001600160401b038211610258576107fb601f8301601f1916602001610721565b928284526020838301011161070c5760005b82811061082257505060206000918301015290565b8060208092840101518282870101520161080d565b80518210156102425760209160051b01019056fe608080604052600436101561001357600080fd5b60003560e01c9081630c6f7ed014610ee757508063136fb02414610e0e578063178dee1414610bfc5780631d8b44c514610bde5780631f8db26814610ba3578063244b36c914610b4b5780632f14bae814610a62578063329a27e7146109b45780633de9837214610840578063540edb4b146107985780635c975abb146107755780635f00e0c61461069857806369b9e846146105b35780639a6e7fd114610595578063a7277b001461053a578063ad05ae0b1461050e578063c062dc5f146104f0578063c8384b93146104b5578063e43581b814610472578063efeb5e581461042e578063f8cc1e391461015b5763fc0c546a1461011157600080fd5b34610156576000366003190112610156576040517f00000000000000000000000000000000000000000000000000000000000000006001600160a01b03168152602090f35b600080fd5b346101565760203660031901126101565760043533600052600f60205260ff604060002054161561041d5761018e611045565b600654811161040c576101a381600b54611011565b600754106103fb576040516020810190731153515491d15390d657d5d2551211149055d05360621b82524260348201523360601b6054820152604881526101eb606882610f38565b5190206040516101fa81610f1c565b60409081516102098382610f38565b600981526812539255125055115160ba1b602082015281526020810193845282600052600860205281600020905193845167ffffffffffffffff81116103e5576102538354610f5a565b95601f871161039d575b602096508690601f831160011461033457600193929160009183610329575b5050600019600383901b1c191690831b1783555b5191015581600052600983526001816000205581600052600a83528060002060018060a01b033316600052835280600020600160ff19825416179055805133837fb5ebea949a8e634e7ce8dce7ff35e88895418d132287842d3819608e8039d92f600080a360018152827ffbecbf0899bc34658f35d90f11765a4c9bdf6ec5c0411890226e1ac7e7854308853393a36001805551908152f35b01519050888061027c565b90601f1983169185600052816000209260005b818110610386575091600195949291838795931061036d575b505050811b018355610290565b015160001960f88460031b161c19169055888080610360565b92938a600181928786015181550195019301610347565b836000526020600020601f830160051c810197602084106103db575b601f0160051c01965b8781106103cf575061025d565b600081556001016103c2565b90975087906103b9565b634e487b7160e01b600052604160045260246000fd5b630ebe748160e41b60005260046000fd5b632c85ba2b60e11b60005260046000fd5b633b8d9d7560e21b60005260046000fd5b346101565760203660031901126101565760043560025481101561015657610457604091610fdc565b506001808060a01b0382541691015482519182526020820152f35b34610156576020366003190112610156576004356001600160a01b0381169081900361015657600052600f602052602060ff604060002054166040519015158152f35b346101565760003660031901126101565760206040517f00000000000000000000000000000000000000000000000000000000000000008152f35b34610156576000366003190112610156576020600354604051908152f35b346101565760203660031901126101565760043560005260096020526020604060002054604051908152f35b3461015657602036600319011261015657600435600e5481101561015657600e6000527fbb7b4a454dc3493923482f07822329ed19e8244eff582cc204f8554c3620c3fd01546040516001600160a01b039091168152602090f35b34610156576000366003190112610156576020600254604051908152f35b34610156576000366003190112610156576040516000600c546105d581610f5a565b80845290600181169081156106745750600114610615575b610611836105fd81850382610f38565b604051918291602083526020830190610fb7565b0390f35b600c60009081527fdf6966c971051c3d54ec59162606531493a51404a002842f56009d7e5cf4a8c7939250905b80821061065a575090915081016020016105fd6105ed565b919260018160209254838588010152019101909291610642565b60ff191660208086019190915291151560051b840190910191506105fd90506105ed565b346101565760203660031901126101565760043560005260086020526040600020604051600082546106c981610f5a565b80845290600181169081156107515750600114610714575b5061070a926106f4836001930384610f38565b0154604051928392604084526040840190610fb7565b9060208301520390f35b6000848152602081209092505b818310610737575050810160200161070a6106e1565b600181602092949394548385880101520191019190610721565b60ff191660208581019190915291151560051b8401909101915061070a90506106e1565b3461015657600036600319011261015657602060ff600054166040519015158152f35b34610156576000366003190112610156576040516000600d546107ba81610f5a565b808452906001811690811561067457506001146107e157610611836105fd81850382610f38565b600d60009081527fd7b6990105719101dabeb77144f2a3385c8033acd3af97e9423a695e81ad1eb5939250905b808210610826575090915081016020016105fd6105ed565b91926001816020925483858801015201910190929161080e565b346101565760403660031901126101565760043560243567ffffffffffffffff811161015657366023820112156101565780600401359067ffffffffffffffff82116103e5576040519161089e601f8201601f191660200184610f38565b8083526020830191366024838301011161015657816000926024602093018537840101526108ca611045565b60ff600054166109a35782156109925761094b907f00000000000000000000000000000000000000000000000000000000000000009261093a6040516323b872dd60e01b602082015233602482015230604482015286606482015260648152610934608482610f38565b85611067565b604051928392839251928391610f94565b81010390209060405192835242602084015260018060a01b0316917f94c7c11d5d8f71b1bcde0ca62c3d1f568764907902a2b478b29051e92ed07a7860403392a460018055005b631f2a200560e01b60005260046000fd5b63d93c066560e01b60005260046000fd5b34610156576000366003190112610156576040516370a0823160e01b81523060048201526020816024817f00000000000000000000000000000000000000000000000000000000000000006001600160a01b03165afa8015610a5657600090610a23575b602090604051908152f35b506020813d602011610a4e575b81610a3d60209383610f38565b810103126101565760209051610a18565b3d9150610a30565b6040513d6000823e3d90fd5b346101565760003660031901126101565760025467ffffffffffffffff81116103e55760405190610a9960208260051b0183610f38565b80825260208201908160026000527f405787fa12a823e0f2b7631cc41b3ba8828b3321ca811111fa75cd3aa3bb5ace6000915b838310610b2d5784866040519182916020830190602084525180915260408301919060005b818110610aff575050500390f35b825180516001600160a01b031685526020908101518186015286955060409094019390920191600101610af1565b60026020600192610b3d8561101e565b815201920192019190610acc565b34610156576040366003190112610156576024356001600160a01b038116810361015657600435600052600a60205260406000209060018060a01b0316600052602052602060ff604060002054166040519015158152f35b346101565760003660031901126101565760206040517f00000000000000000000000000000000000000000000000000000000000000008152f35b34610156576000366003190112610156576020600b54604051908152f35b346101565760203660031901126101565760043533600052600f60205260ff604060002054161561041d57610c2f611045565b806000526008602052600160406000200154600654811161040c57610c5690600b54611011565b600754106103fb576000818152600860209081526040918290206001015491516370a0823160e01b81523060048201527f000000000000000000000000000000000000000000000000000000000000000093929091826024816001600160a01b0388165afa918215610a5657600092610dda575b5011610dc95760005260086020526001604060002001549060008215905b600254811015610d8457610d04610cfe82610fdc565b5061101e565b906020820151918286029286840414841715610d6e576127106001930480610d2f575b505001610ce8565b610d6791848060a01b03905116906040519163a9059cbb60e01b60208401526024830152604482015260448152610934606482610f38565b8580610d27565b634e487b7160e01b600052601160045260246000fd5b7f87c55e47b652684bfb49003377311fbb8bcf22ca0caa250be6c5892b02e78cee604085610db481600b54611011565b600b558151908152426020820152a160018055005b6378dbf0af60e11b60005260046000fd5b9091506020813d602011610e06575b81610df660209383610f38565b8101031261015657519084610cca565b3d9150610de9565b346101565760203660031901126101565760043533600052600f60205260ff604060002054161561041d576000818152600a6020908152604080832033845290915290205460ff16610ed6576000818152600a602090815260408083203384528252808320805460ff191660011790558383526009909152902080546000198114610d6e576001019055806000526009602052604060002054906040519182527ffbecbf0899bc34658f35d90f11765a4c9bdf6ec5c0411890226e1ac7e785430860203393a3005b63080fc0bd60e11b60005260046000fd5b346101565760003660031901126101565760809060045460055460065490600754928452602084015260408301526060820152f35b6040810190811067ffffffffffffffff8211176103e557604052565b90601f8019910116810190811067ffffffffffffffff8211176103e557604052565b90600182811c92168015610f8a575b6020831014610f7457565b634e487b7160e01b600052602260045260246000fd5b91607f1691610f69565b60005b838110610fa75750506000910152565b8181015183820152602001610f97565b90602091610fd081518092818552858086019101610f94565b601f01601f1916010190565b600254811015610ffb57600260005260206000209060011b0190600090565b634e487b7160e01b600052603260045260246000fd5b91908201809211610d6e57565b9060405161102b81610f1c565b82546001600160a01b031681526001909201546020830152565b600260015414611056576002600155565b633ee5aeb560e01b60005260046000fd5b906000602091828151910182855af115610a56576000513d6110b957506001600160a01b0381163b155b6110985750565b635274afe760e01b60009081526001600160a01b0391909116600452602490fd5b6001141561109156fea26469706673582212200e5d1906058c3164cba7b0e7eb1d852ce49fbd525281a72b066e39cfa2221ce364736f6c634300081c0033",
  "linkReferences": {},
  "deployedLinkReferences": {}
}