{
  "_format": "hh-sol-artifact-1",
  "contractName": "FundManager",
  "sourceName": "contracts/FundManager.sol",
  "abi": [
    {
      "inputs": [
        {
          "internalType": "address[]",
          "name": "_beneficiaryAddresses",
          "type": "address[]"
        },
        {
          "internalType": "uint256[]",
          "name": "_sharePercentages",
          "type": "uint256[]"
        },
        {
          "internalType": "address",
          "name": "_tokenAddress",
          "type": "address"
        },
        {
          "internalType": "uint256",
          "name": "_releaseAmount",
          "type": "uint256"
        },
        {
          "internalType": "uint256",
          "name": "_fundMaturityDate",
          "type": "uint256"
        },
        {
          "internalType": "string",
          "name": "_causeName",
          "type": "string"
        },
        {
          "internalType": "string",
          "name": "_causeDescription",
          "type": "string"
        },
        {
          "internalType": "address[]",
          "name": "_governors",
          "type": "address[]"
        },
        {
          "internalType": "uint256",
          "name": "_requiredNumberofApprovalsForWithdrawal",
          "type": "uint256"
        },
        {
          "internalType": "uint256",
          "name": "_timesEmergencyWithdrawalAllowed",
          "type": "uint256"
        },
        {
          "internalType": "uint256",
          "name": "_limitPerEmergencyWithdrawal",
          "type": "uint256"
        },
        {
          "internalType": "uint256",
          "name": "_totalLimitForEmergencyWithdrawal",
          "type": "uint256"
        }
      ],
      "stateMutability": "nonpayable",
      "type": "constructor"
    },
    {
      "inputs": [],
      "name": "AlreadyApproved",
      "type": "error"
    },
    {
      "inputs": [],
      "name": "EnforcedPause",
      "type": "error"
    },
    {
      "inputs": [],
      "name": "ExpectedPause",
      "type": "error"
    },
    {
      "inputs": [],
      "name": "FundNotMatured",
      "type": "error"
    },
    {
      "inputs": [],
      "name": "InsufficientTokens",
      "type": "error"
    },
    {
      "inputs": [],
      "name": "InvalidBeneficiaryShares",
      "type": "error"
    },
    {
      "inputs": [],
      "name": "InvalidGovernors",
      "type": "error"
    },
    {
      "inputs": [],
      "name": "InvalidInvestmentContract",
      "type": "error"
    },
    {
      "inputs": [],
      "name": "InvalidMaturityDate",
      "type": "error"
    },
    {
      "inputs": [],
      "name": "InvalidTotalSharePercentage",
      "type": "error"
    },
    {
      "inputs": [],
      "name": "InvestmentFailed",
      "type": "error"
    },
    {
      "inputs": [],
      "name": "NotGovernor",
      "type": "error"
    },
    {
      "inputs": [
        {
          "internalType": "address",
          "name": "owner",
          "type": "address"
        }
      ],
      "name": "OwnableInvalidOwner",
      "type": "error"
    },
    {
      "inputs": [
        {
          "internalType": "address",
          "name": "account",
          "type": "address"
        }
      ],
      "name": "OwnableUnauthorizedAccount",
      "type": "error"
    },
    {
      "inputs": [],
      "name": "ReentrancyGuardReentrantCall",
      "type": "error"
    },
    {
      "inputs": [
        {
          "internalType": "address",
          "name": "token",
          "type": "address"
        }
      ],
      "name": "SafeERC20FailedOperation",
      "type": "error"
    },
    {
      "inputs": [],
      "name": "TotalWithdrawalLimitBreached",
      "type": "error"
    },
    {
      "inputs": [],
      "name": "WithdrawalAmountBreachesLimit",
      "type": "error"
    },
    {
      "inputs": [],
      "name": "WithdrawalFailed",
      "type": "error"
    },
    {
      "inputs": [],
      "name": "ZeroAmount",
      "type": "error"
    },
    {
      "anonymous": false,
      "inputs": [
        {
          "indexed": true,
          "internalType": "bytes32",
          "name": "withdrawalId",
          "type": "bytes32"
        },
        {
          "indexed": true,
          "internalType": "address",
          "name": "governor",
          "type": "address"
        },
        {
          "indexed": false,
          "internalType": "uint256",
          "name": "currentApprovals",
          "type": "uint256"
        }
      ],
      "name": "EmergencyWithdrawalApproved",
      "type": "event"
    },
    {
      "anonymous": false,
      "inputs": [
        {
          "indexed": false,
          "internalType": "uint256",
          "name": "totalAmount",
          "type": "uint256"
        },
        {
          "indexed": false,
          "internalType": "uint256",
          "name": "timestamp",
          "type": "uint256"
        }
      ],
      "name": "EmergencyWithdrawalExecuted",
      "type": "event"
    },
    {
      "anonymous": false,
      "inputs": [
        {
          "indexed": true,
          "internalType": "bytes32",
          "name": "withdrawalId",
          "type": "bytes32"
        },
        {
          "indexed": true,
          "internalType": "address",
          "name": "initiator",
          "type": "address"
        }
      ],
      "name": "EmergencyWithdrawalInitiated",
      "type": "event"
    },
    {
      "anonymous": false,
      "inputs": [
        {
          "indexed": true,
          "internalType": "address",
          "name": "sender",
          "type": "address"
        },
        {
          "indexed": true,
          "internalType": "string",
          "name": "note",
          "type": "string"
        },
        {
          "indexed": true,
          "internalType": "address",
          "name": "token",
          "type": "address"
        },
        {
          "indexed": false,
          "internalType": "uint256",
          "name": "amount",
          "type": "uint256"
        },
        {
          "indexed": false,
          "internalType": "uint256",
          "name": "timestamp",
          "type": "uint256"
        }
      ],
      "name": "FundReceived",
      "type": "event"
    },
    {
      "anonymous": false,
      "inputs": [
        {
          "indexed": false,
          "internalType": "uint256",
          "name": "totalAmount",
          "type": "uint256"
        },
        {
          "indexed": false,
          "internalType": "uint256",
          "name": "timestamp",
          "type": "uint256"
        }
      ],
      "name": "FundReleased",
      "type": "event"
    },
    {
      "anonymous": false,
      "inputs": [
        {
          "indexed": true,
          "internalType": "address",
          "name": "previousOwner",
          "type": "address"
        },
        {
          "indexed": true,
          "internalType": "address",
          "name": "newOwner",
          "type": "address"
        }
      ],
      "name": "OwnershipTransferred",
      "type": "event"
    },
    {
      "anonymous": false,
      "inputs": [
        {
          "indexed": false,
          "internalType": "address",
          "name": "account",
          "type": "address"
        }
      ],
      "name": "Paused",
      "type": "event"
    },
    {
      "anonymous": false,
      "inputs": [
        {
          "indexed": false,
          "internalType": "address",
          "name": "account",
          "type": "address"
        }
      ],
      "name": "Unpaused",
      "type": "event"
    },
    {
      "inputs": [
        {
          "internalType": "bytes32",
          "name": "withdrawalId",
          "type": "bytes32"
        }
      ],
      "name": "approveEmergencyWithdrawal",
      "outputs": [],
      "stateMutability": "nonpayable",
      "type": "function"
    },
    {
      "inputs": [
        {
          "internalType": "uint256",
          "name": "",
          "type": "uint256"
        }
      ],
      "name": "beneficiaries",
      "outputs": [
        {
          "internalType": "address payable",
          "name": "wallet",
          "type": "address"
        },
        {
          "internalType": "uint256",
          "name": "sharePercentage",
          "type": "uint256"
        }
      ],
      "stateMutability": "view",
      "type": "function"
    },
    {
      "inputs": [],
      "name": "causeDescription",
      "outputs": [
        {
          "internalType": "string",
          "name": "",
          "type": "string"
        }
      ],
      "stateMutability": "view",
      "type": "function"
    },
    {
      "inputs": [],
      "name": "causeName",
      "outputs": [
        {
          "internalType": "string",
          "name": "",
          "type": "string"
        }
      ],
      "stateMutability": "view",
      "type": "function"
    },
    {
      "inputs": [
        {
          "internalType": "uint256",
          "name": "_amount",
          "type": "uint256"
        },
        {
          "internalType": "string",
          "name": "note",
          "type": "string"
        }
      ],
      "name": "contributeFund",
      "outputs": [],
      "stateMutability": "nonpayable",
      "type": "function"
    },
    {
      "inputs": [
        {
          "internalType": "bytes32",
          "name": "",
          "type": "bytes32"
        }
      ],
      "name": "emergencyWithdrawalApprovals",
      "outputs": [
        {
          "internalType": "uint256",
          "name": "",
          "type": "uint256"
        }
      ],
      "stateMutability": "view",
      "type": "function"
    },
    {
      "inputs": [],
      "name": "emergencyWithdrawalConfig",
      "outputs": [
        {
          "internalType": "uint256",
          "name": "requiredNumberofApprovals",
          "type": "uint256"
        },
        {
          "internalType": "uint256",
          "name": "timesAllowed",
          "type": "uint256"
        },
        {
          "internalType": "uint256",
          "name": "limitPerWithdrawal",
          "type": "uint256"
        },
        {
          "internalType": "uint256",
          "name": "totalLimit",
          "type": "uint256"
        }
      ],
      "stateMutability": "view",
      "type": "function"
    },
    {
      "inputs": [
        {
          "internalType": "bytes32",
          "name": "",
          "type": "bytes32"
        }
      ],
      "name": "emergencyWithdrawals",
      "outputs": [
        {
          "internalType": "string",
          "name": "status",
          "type": "string"
        },
        {
          "internalType": "uint256",
          "name": "amount",
          "type": "uint256"
        }
      ],
      "stateMutability": "view",
      "type": "function"
    },
    {
      "inputs": [
        {
          "internalType": "bytes32",
          "name": "withdrawalId",
          "type": "bytes32"
        }
      ],
      "name": "executeEmergencyWithdrawal",
      "outputs": [],
      "stateMutability": "nonpayable",
      "type": "function"
    },
    {
      "inputs": [],
      "name": "fundMaturityDate",
      "outputs": [
        {
          "internalType": "uint256",
          "name": "",
          "type": "uint256"
        }
      ],
      "stateMutability": "view",
      "type": "function"
    },
    {
      "inputs": [],
      "name": "getAllBeneficiaries",
      "outputs": [
        {
          "components": [
            {
              "internalType": "address payable",
              "name": "wallet",
              "type": "address"
            },
            {
              "internalType": "uint256",
              "name": "sharePercentage",
              "type": "uint256"
            }
          ],
          "internalType": "struct FundManager.Beneficiary[]",
          "name": "",
          "type": "tuple[]"
        }
      ],
      "stateMutability": "view",
      "type": "function"
    },
    {
      "inputs": [],
      "name": "getBeneficiaryCount",
      "outputs": [
        {
          "internalType": "uint256",
          "name": "",
          "type": "uint256"
        }
      ],
      "stateMutability": "view",
      "type": "function"
    },
    {
      "inputs": [],
      "name": "getWalletBalance",
      "outputs": [
        {
          "internalType": "uint256",
          "name": "",
          "type": "uint256"
        }
      ],
      "stateMutability": "view",
      "type": "function"
    },
    {
      "inputs": [
        {
          "internalType": "uint256",
          "name": "",
          "type": "uint256"
        }
      ],
      "name": "governors",
      "outputs": [
        {
          "internalType": "address",
          "name": "",
          "type": "address"
        }
      ],
      "stateMutability": "view",
      "type": "function"
    },
    {
      "inputs": [
        {
          "internalType": "bytes32",
          "name": "",
          "type": "bytes32"
        },
        {
          "internalType": "address",
          "name": "",
          "type": "address"
        }
      ],
      "name": "hasApprovedEmergencyWithdrawal",
      "outputs": [
        {
          "internalType": "bool",
          "name": "",
          "type": "bool"
        }
      ],
      "stateMutability": "view",
      "type": "function"
    },
    {
      "inputs": [
        {
          "internalType": "uint256",
          "name": "_amount",
          "type": "uint256"
        }
      ],
      "name": "initiateEmergencyWithdrawal",
      "outputs": [
        {
          "internalType": "bytes32",
          "name": "withdrawalId",
          "type": "bytes32"
        }
      ],
      "stateMutability": "nonpayable",
      "type": "function"
    },
    {
      "inputs": [
        {
          "internalType": "address",
          "name": "_investmentContract",
          "type": "address"
        },
        {
          "internalType": "uint256",
          "name": "_amount",
          "type": "uint256"
        }
      ],
      "name": "investFund",
      "outputs": [],
      "stateMutability": "nonpayable",
      "type": "function"
    },
    {
      "inputs": [
        {
          "internalType": "address",
          "name": "",
          "type": "address"
        }
      ],
      "name": "isGovernor",
      "outputs": [
        {
          "internalType": "bool",
          "name": "",
          "type": "bool"
        }
      ],
      "stateMutability": "view",
      "type": "function"
    },
    {
      "inputs": [],
      "name": "owner",
      "outputs": [
        {
          "internalType": "address",
          "name": "",
          "type": "address"
        }
      ],
      "stateMutability": "view",
      "type": "function"
    },
    {
      "inputs": [],
      "name": "paused",
      "outputs": [
        {
          "internalType": "bool",
          "name": "",
          "type": "bool"
        }
      ],
      "stateMutability": "view",
      "type": "function"
    },
    {
      "inputs": [],
      "name": "releaseAmount",
      "outputs": [
        {
          "internalType": "uint256",
          "name": "",
          "type": "uint256"
        }
      ],
      "stateMutability": "view",
      "type": "function"
    },
    {
      "inputs": [
        {
          "internalType": "uint256",
          "name": "_inflationCoefficient",
          "type": "uint256"
        }
      ],
      "name": "releaseRegularPension",
      "outputs": [],
      "stateMutability": "nonpayable",
      "type": "function"
    },
    {
      "inputs": [],
      "name": "renounceOwnership",
      "outputs": [],
      "stateMutability": "nonpayable",
      "type": "function"
    },
    {
      "inputs": [],
      "name": "token",
      "outputs": [
        {
          "internalType": "contract IERC20",
          "name": "",
          "type": "address"
        }
      ],
      "stateMutability": "view",
      "type": "function"
    },
    {
      "inputs": [],
      "name": "totalWithdrawnAmount",
      "outputs": [
        {
          "internalType": "uint256",
          "name": "",
          "type": "uint256"
        }
      ],
      "stateMutability": "view",
      "type": "function"
    },
    {
      "inputs": [
        {
          "internalType": "address",
          "name": "newOwner",
          "type": "address"
        }
      ],
      "name": "transferOwnership",
      "outputs": [],
      "stateMutability": "nonpayable",
      "type": "function"
    },
    {
      "inputs": [
        {
          "internalType": "address",
          "name": "_investmentContract",
          "type": "address"
        }
      ],
      "name": "withdrawInvestment",
      "outputs": [
        {
          "internalType": "uint256",
          "name": "withdrawnAmount",
          "type": "uint256"
        }
      ],
      "stateMutability": "nonpayable",
      "type": "function"
    }
  ],
  "bytecode": "0x60c0604052346107b05761219680380380610019816107c5565b928339810190610180818303126107b05780516001600160401b0381116107b05782610046918301610815565b60208201516001600160401b0381116107b05782019083601f830112156107b05781519161007b610076846107ea565b6107c5565b9260208085838152019160051b830101918683116107b057602001905b8282106107b5575050506100ae60408401610801565b92606081015194608082015160a083015160018060401b0381116107b057826100d8918501610870565b60c08401519093906001600160401b0381116107b057836100fa918301610870565b60e082015190936001600160401b0382116107b05761011a918301610815565b9361010082015193610120830151916101606101408501519401519460018055331561079a5760028054336001600160a01b0319821681179092556001600160a01b03167f8be0079c531659141344cd1fd0a4f28419497f9722a3daafe3b4186f6b6457e0600080a380421015610789578851801590811561077d575b5061076c5760009b8c5b8d8b5111156102ec578b6101c98f8d6101c18260018060a01b03926108db565b5116926108db565b5160408051929083016001600160401b038111848210176102d65760405282526020820152600354680100000000000000008110156102d65760018101806003558110156102c0576003600052815160019190911b7fc2575a0e9e593c00f959f8c92f12db2869c3395a3b0502d05e2516446f71f85b810180546001600160a01b0319166001600160a01b0393909316929092179091556020909101517fc2575a0e9e593c00f959f8c92f12db2869c3395a3b0502d05e2516446f71f85c909101556102958e8d6108db565b5181018091116102aa576001909d019c6101a1565b634e487b7160e01b600052601160045260246000fd5b634e487b7160e01b600052603260045260246000fd5b634e487b7160e01b600052604160045260246000fd5b6127108d910361075b576001600160a01b031660805260045560a0528051906001600160401b0382116102d657600d5490600182811c92168015610751575b602083101461064e5781601f8493116106e1575b50602090601f83116001146106795760009261066e575b50508160011b916000199060031b1c191617600d555b8051906001600160401b0382116102d657600e5490600182811c92168015610664575b602083101461064e5781601f8493116105de575b50602090601f83116001146105765760009261056b575b50508160011b916000199060031b1c191617600e555b84518015908115610562575b8115610558575b506104bc5760005b85518110156104f8576001600160a01b0361040682886108db565b51161580156104cd575b6104bc576001600160a01b0361042682886108db565b511690600f5491680100000000000000008310156102d6576001830180600f558310156102c057600f6000527f8d1108e10bcb7c27dddfc02ed9d693a074039d026cf4ea4240b40f7d581ac80290920180546001600160a01b0319169092179091556001906001600160a01b0361049d82896108db565b5116600052601060205260406000208260ff19825416179055016103eb565b632f77a6e160e01b60005260046000fd5b506001600160a01b036104e082886108db565b5116600052601060205260ff60406000205416610410565b50836005556006556007556008556040516118a690816108f0823960805181818161015f015281816105fa0152818161077b015281816109a901528181610b040152818161105001526112c3015260a0518181816106d80152610abc0152f35b90508411866103e3565b851591506103dc565b0151905087806103ba565b600e60009081528281209350601f198516905b8181106105c657509084600195949392106105ad575b505050811b01600e556103d0565b015160001960f88460031b161c1916905587808061059f565b92936020600181928786015181550195019301610589565b600e6000529091507fbb7b4a454dc3493923482f07822329ed19e8244eff582cc204f8554c3620c3fd601f840160051c81019160208510610644575b90601f859493920160051c01905b81811061063557506103a3565b60008155849350600101610628565b909150819061061a565b634e487b7160e01b600052602260045260246000fd5b91607f169161038f565b015190508880610356565b600d60009081528281209350601f198516905b8181106106c957509084600195949392106106b0575b505050811b01600d5561036c565b015160001960f88460031b161c191690558880806106a2565b9293602060018192878601518155019501930161068c565b600d6000529091507fd7b6990105719101dabeb77144f2a3385c8033acd3af97e9423a695e81ad1eb5601f840160051c81019160208510610747575b90601f859493920160051c01905b818110610738575061033f565b6000815584935060010161072b565b909150819061071d565b91607f169161032b565b63357713ed60e21b60005260046000fd5b63017d64fb60e51b60005260046000fd5b90508a51141538610197565b633085aae960e01b60005260046000fd5b631e4fbdf760e01b600052600060045260246000fd5b600080fd5b8151815260209182019101610098565b6040519190601f01601f191682016001600160401b038111838210176102d657604052565b6001600160401b0381116102d65760051b60200190565b51906001600160a01b03821682036107b057565b9080601f830112156107b057815161082f610076826107ea565b9260208085848152019260051b8201019283116107b057602001905b8282106108585750505090565b6020809161086584610801565b81520191019061084b565b81601f820112156107b0578051906001600160401b0382116102d65761089f601f8301601f19166020016107c5565b92828452602083830101116107b05760005b8281106108c657505060206000918301015290565b806020809284010151828287010152016108b1565b80518210156102c05760209160051b01019056fe608080604052600436101561001357600080fd5b600090813560e01c9081630c6f7ed01461154957508063136fb02414611464578063178dee141461123d5780631d8b44c51461121f578063244b36c9146111cc5780632f14bae8146110d4578063329a27e714611024578063540edb4b14610f7d5780635c975abb14610f5b5780635f00e0c614610e7c57806369b9e84614610d95578063715018a614610d385780638da5cb5b14610d0f5780639a6e7fd114610cf1578063a7277b0014610c91578063a77f44f214610a98578063ab9427271461094a578063ad05ae0b14610920578063afe4919514610719578063c062dc5f146106fb578063c8384b93146106c0578063dedaedd91461055d578063e43581b81461051e578063efeb5e58146104d8578063f2fde38b1461044f578063f8cc1e39146101915763fc0c546a1461014a57600080fd5b3461018e578060031936011261018e576040517f00000000000000000000000000000000000000000000000000000000000000006001600160a01b03168152602090f35b80fd5b503461018e57602036600319011261018e5760043590338152601060205260ff60408220541615610440576101c461175e565b6007548211610431576101d982600c546116a5565b60085410610422576040516020810190731153515491d15390d657d5d2551211149055d05360621b82524260348201523360601b605482015260488152610221606882611606565b5190209060405190610232826115d4565b60409182516102418482611606565b600981526812539255125055115160ba1b60208201528152602081019485528382526009602052828220905194855167ffffffffffffffff811161040e57610289835461159a565b601f81116103c9575b506020968790601f8311600114610364576001939291869183610359575b5050600019600383901b1c191690831b1783555b51910155828152600a8452600182822055828152600b845281812060018060a01b033316600052845281600020600160ff19825416179055815190837fb5ebea949a8e634e7ce8dce7ff35e88895418d132287842d3819608e8039d92f339280a360018152827ffbecbf0899bc34658f35d90f11765a4c9bdf6ec5c0411890226e1ac7e7854308853393a36001805551908152f35b0151905038806102b0565b8486528186209190601f198416875b8181106103b25750916001959492918387959310610399575b505050811b0183556102c4565b015160001960f88460031b161c1916905538808061038c565b92938b600181928786015181550195019301610373565b83855260208520601f830160051c81019160208410610404575b601f0160051c01905b8181106103f95750610292565b8581556001016103ec565b90915081906103e3565b634e487b7160e01b84526041600452602484fd5b630ebe748160e41b8152600490fd5b632c85ba2b60e11b8152600490fd5b633b8d9d7560e21b8152600490fd5b503461018e57602036600319011261018e5761046961157f565b6104716117c3565b6001600160a01b031680156104c457600280546001600160a01b0319811683179091556001600160a01b03167f8be0079c531659141344cd1fd0a4f28419497f9722a3daafe3b4186f6b6457e08380a380f35b631e4fbdf760e01b82526004829052602482fd5b503461018e57602036600319011261018e576004359060035482101561018e57604061050383611670565b506001808060a01b0382541691015482519182526020820152f35b503461018e57602036600319011261018e5760209060ff906040906001600160a01b0361054961157f565b168152601084522054166040519015158152f35b503461018e57604036600319011261018e5760043560243567ffffffffffffffff81116106bc57366023820112156106bc57806004013567ffffffffffffffff811161040e576040519184906105bd601f8401601f191660200185611606565b828452602084019236602482840101116106bc57806024602093018537840101526105e661175e565b6105ee6117ec565b82156106ad57610665907f0000000000000000000000000000000000000000000000000000000000000000926106546040516323b872dd60e01b60208201523360248201523060448201528660648201526064815261064e608482611606565b85611809565b604051928392839251928391611628565b81010390209060405192835242602084015260018060a01b0316917f94c7c11d5d8f71b1bcde0ca62c3d1f568764907902a2b478b29051e92ed07a7860403392a46001805580f35b631f2a200560e01b8452600484fd5b8280fd5b503461018e578060031936011261018e5760206040517f00000000000000000000000000000000000000000000000000000000000000008152f35b503461018e578060031936011261018e576020600454604051908152f35b503461018e57604036600319011261018e5761073361157f565b9060243561073f6117c3565b61074761175e565b61074f6117ec565b6001600160a01b038316908115610911578015610902576040516370a0823160e01b81523060048201527f00000000000000000000000000000000000000000000000000000000000000006001600160a01b03169490602081602481895afa9081156108f75785916108c1575b5082116108b25760405163095ea7b360e01b81526001600160a01b039190911660048201526024810182905292938493906020908290604490829088905af180156108a757610812918591610878575b5061171a565b813b1561087457604051635cdc612360e11b8152306004820152602481019190915292829184916044918391905af19182610864575b509061085d57631b0ba14d60e01b8152600490fd5b6001805580f35b8161086e91611606565b38610848565b5050fd5b61089a915060203d6020116108a0575b6108928183611606565b810190611702565b3861080c565b503d610888565b6040513d86823e3d90fd5b6378dbf0af60e11b8452600484fd5b90506020813d6020116108ef575b816108dc60209383611606565b810103126108eb5751386107bc565b8480fd5b3d91506108cf565b6040513d87823e3d90fd5b631f2a200560e01b8352600483fd5b63bac3955960e01b8352600483fd5b503461018e57602036600319011261018e5760406020916004358152600a83522054604051908152f35b503461018e57602036600319011261018e5761096461157f565b61096c6117c3565b61097461175e565b6001600160a01b03168015610a895760405163095ea7b360e01b815260048101829052602481018390528291602082604481867f00000000000000000000000000000000000000000000000000000000000000006001600160a01b03165af1918215610a7e576020926109ed918591610a67575061171a565b6024604051809481936351cff8d960e01b83523060048401525af1829181610a33575b50610a24576327fcd9d160e01b8252600482fd5b60209060018055604051908152f35b9091506020813d602011610a5f575b81610a4f60209383611606565b810103126106bc57519038610a10565b3d9150610a42565b61089a9150843d86116108a0576108928183611606565b6040513d85823e3d90fd5b63bac3955960e01b8252600482fd5b503461018e57602036600319011261018e57610ab261175e565b610aba6117ec565b7f00000000000000000000000000000000000000000000000000000000000000004210610c8257610aef6004356004546116ef565b6040516370a0823160e01b81523060048201527f00000000000000000000000000000000000000000000000000000000000000006001600160a01b03811691602081602481865afa80156108f75784918691610c4d575b50106108b257835b600354811015610c1557610b6a610b6482611670565b506116c8565b90612710610b7c6020840151876116ef565b049182610b8f575b506001915001610b4e565b805160405163095ea7b360e01b81526001600160a01b03909116600482015260248101849052926020846044818b8a5af1918215610c0a57610bdd610bec936001968b91610bf2575061171a565b848060a01b0390511685611780565b38610b84565b61089a915060203d81116108a0576108928183611606565b6040513d8a823e3d90fd5b847fff2b209b727f6c971b9d831e5a1b9e99ff3037d6e0464370efff7570feb1b8536040868151908152426020820152a16001805580f35b9150506020813d602011610c7a575b81610c6960209383611606565b810103126108eb5783905138610b46565b3d9150610c5c565b63369745fb60e21b8152600490fd5b503461018e57602036600319011261018e57600435600f54811015610ced57600f9091527f8d1108e10bcb7c27dddfc02ed9d693a074039d026cf4ea4240b40f7d581ac80201546040516001600160a01b039091168152602090f35b5080fd5b503461018e578060031936011261018e576020600354604051908152f35b503461018e578060031936011261018e576002546040516001600160a01b039091168152602090f35b503461018e578060031936011261018e57610d516117c3565b600280546001600160a01b0319811690915581906001600160a01b03167f8be0079c531659141344cd1fd0a4f28419497f9722a3daafe3b4186f6b6457e08280a380f35b503461018e578060031936011261018e576040519080600d5490610db88261159a565b8085529160018116908115610e555750600114610df8575b610df484610de081860382611606565b60405191829160208352602083019061164b565b0390f35b600d81527fd7b6990105719101dabeb77144f2a3385c8033acd3af97e9423a695e81ad1eb5939250905b808210610e3b57509091508101602001610de082610dd0565b919260018160209254838588010152019101909291610e22565b60ff191660208087019190915292151560051b85019092019250610de09150839050610dd0565b503461018e57602036600319011261018e576004358152600960205260408120906040519080835490610eae8261159a565b8085529160018116908115610f345750600114610ef9575b610eef84600187610ed983880384611606565b015460405192839260408452604084019061164b565b9060208301520390f35b9150838252602082205b818310610f1a575050810160200182610ed9610ec6565b600181602092949394548385880101520191019190610f03565b60ff191660208087019190915292151560051b85019092019250849150610ed99050610ec6565b503461018e578060031936011261018e5760ff60209154166040519015158152f35b503461018e578060031936011261018e576040519080600e5490610fa08261159a565b8085529160018116908115610e555750600114610fc757610df484610de081860382611606565b600e81527fbb7b4a454dc3493923482f07822329ed19e8244eff582cc204f8554c3620c3fd939250905b80821061100a57509091508101602001610de082610dd0565b919260018160209254838588010152019101909291610ff1565b503461018e578060031936011261018e576040516370a0823160e01b81523060048201526020816024817f00000000000000000000000000000000000000000000000000000000000000006001600160a01b03165afa9081156110c9578291611093575b602082604051908152f35b90506020813d6020116110c1575b816110ae60209383611606565b81010312610ced57602091505138611088565b3d91506110a1565b6040513d84823e3d90fd5b503461018e578060031936011261018e5760035467ffffffffffffffff81116111b85760405161110a60208360051b0182611606565b818152600383526020810191837fc2575a0e9e593c00f959f8c92f12db2869c3395a3b0502d05e2516446f71f85b845b83831061119a57868587604051928392602084019060208552518091526040840192915b81811061116c575050500390f35b825180516001600160a01b03168552602090810151818601528695506040909401939092019160010161115e565b600260206001926111aa856116c8565b81520192019201919061113a565b634e487b7160e01b82526041600452602482fd5b503461018e57604036600319011261018e576024356001600160a01b0381168103610ced57604060209260ff926004358252600b85528282209060018060a01b0316825284522054166040519015158152f35b503461018e578060031936011261018e576020600c54604051908152f35b503461018e57602036600319011261018e57600435338252601060205260ff604083205416156114555761126f61175e565b8082526009602052600160408320015460075481116114465761129490600c546116a5565b60085410611437578082526009602090815260408084206001015490516370a0823160e01b81523060048201527f0000000000000000000000000000000000000000000000000000000000000000936001600160a01b0385169390929082602481875afa91821561142c5786926113f4575b50116108b25783526009602052600160408420015491835b6003548110156113ad57611334610b6482611670565b906127106113466020840151876116ef565b049182611359575b50600191500161131e565b805160405163095ea7b360e01b81526001600160a01b03909116600482015260248101849052926020846044818b8a5af1918215610c0a57610bdd6113a7936001968b91610bf2575061171a565b3861134e565b847f87c55e47b652684bfb49003377311fbb8bcf22ca0caa250be6c5892b02e78cee6040866113de81600c546116a5565b600c558151908152426020820152a16001805580f35b9091506020813d602011611424575b8161141060209383611606565b8101031261142057519038611306565b8580fd5b3d9150611403565b6040513d88823e3d90fd5b630ebe748160e41b8252600482fd5b632c85ba2b60e11b8352600483fd5b633b8d9d7560e21b8252600482fd5b503461018e57602036600319011261018e57600435338252601060205260ff6040832054161561145557808252600b6020908152604080842033855290915282205460ff1661153a57808252600b602090815260408084203385528252808420805460ff19166001179055828452600a909152822080546000198114611526576001019055808252600a6020526040822054906040519182527ffbecbf0899bc34658f35d90f11765a4c9bdf6ec5c0411890226e1ac7e785430860203393a380f35b634e487b7160e01b84526011600452602484fd5b63080fc0bd60e11b8252600482fd5b905034610ced5781600319360112610ced5760809060055460065460075490600854928452602084015260408301526060820152f35b600435906001600160a01b038216820361159557565b600080fd5b90600182811c921680156115ca575b60208310146115b457565b634e487b7160e01b600052602260045260246000fd5b91607f16916115a9565b6040810190811067ffffffffffffffff8211176115f057604052565b634e487b7160e01b600052604160045260246000fd5b90601f8019910116810190811067ffffffffffffffff8211176115f057604052565b60005b83811061163b5750506000910152565b818101518382015260200161162b565b9060209161166481518092818552858086019101611628565b601f01601f1916010190565b60035481101561168f57600360005260206000209060011b0190600090565b634e487b7160e01b600052603260045260246000fd5b919082018092116116b257565b634e487b7160e01b600052601160045260246000fd5b906040516116d5816115d4565b82546001600160a01b031681526001909201546020830152565b818102929181159184041417156116b257565b90816020910312611595575180151581036115955790565b1561172157565b60405162461bcd60e51b8152602060048201526015602482015274151bdad95b88185c1c1c9bdd985b0819985a5b1959605a1b6044820152606490fd5b60026001541461176f576002600155565b633ee5aeb560e01b60005260046000fd5b60405163a9059cbb60e01b60208201526001600160a01b039290921660248301526044808301939093529181526117c1916117bc606483611606565b611809565b565b6002546001600160a01b031633036117d757565b63118cdaa760e01b6000523360045260246000fd5b60ff600054166117f857565b63d93c066560e01b60005260046000fd5b906000602091828151910182855af115611864576000513d61185b57506001600160a01b0381163b155b61183a5750565b635274afe760e01b60009081526001600160a01b0391909116600452602490fd5b60011415611833565b6040513d6000823e3d90fdfea26469706673582212206caf56d1de80604b18ce0e4e8d2fd0f51277b2a5336b41722b3f0ddbdda022e564736f6c634300081c0033",
  "linkReferences": {},
  "deployedLinkReferences": {}
}